:020000040000FA
:10000000E1EF25F0D9CFE5FFE1CFD9FF00C0E5FF53
:1000100001C0E5FF02C0E5FF03C0E5FF04C0E5FF46
:1000200005C0E5FF06C0E5FF07C0E5FF020EDBCF18
:1000300000F0030EDBCF01F0040EDBCF02F0050E63
:10004000DBCF03F000500110D8A418D1800EE56E6C
:10005000F3EC28F0E6520150E56E0050E56E000E1C
:10006000E56E060EE56E2EEC27F0046EF3CF05F07C
:10007000040EE126030E0426020E05220350E56E4F
:100080000250E56E000EE56E030EE56E2EEC27F0D5
:10009000066EF3CF07F0040EE12606500426075043
:1000A000052204C0E9FF05C0EAFFEECF04F0EECF61
:1000B00005F0EFCF06F00650E56E0550E56E0450F2
:1000C000E56E7EEC27F0030EE126000E066E380E7C
:1000D000056E040E046E0650E56E0550E56E045084
:1000E000E56E7EEC27F0030EE1260201EF51E56E8E
:1000F0000201EE51E56EAAEC23F0E652E652000E44
:10010000066E380E056E060E046E0650E56E05503E
:10011000E56E0450E56E7EEC27F0030EE126C00E7E
:10012000E56EF3EC28F0E652000EE56E030EE56E88
:1001300034EC29F0046EE652E652056A0550E56E8D
:100140000450E56EAAEC23F0E652E652000E066E6D
:10015000380E056E0C0E046E0650E56E0550E56E09
:100160000450E56E7EEC27F0030EE126000EE56EEE
:10017000040EE56E34EC29F0046EE652E652056A90
:100180000550E56E0450E56EAAEC23F0E652E65207
:10019000000E066E380E056E0C0E046E0650E56EEF
:1001A0000550E56E0450E56E7EEC27F0030EE12667
:1001B000000EE56E050EE56E34EC29F0046EE65295
:1001C000E652056A0550E56E0450E56EAAEC23F090
:1001D000E652E652000E066E380E056E0E0E046EE6
:1001E0000650E56E0550E56E0450E56E7EEC27F096
:1001F000030EE126000EE56E010EE56E34EC29F0EB
:10020000046EE652E652056A0550E56E0450E56E4E
:10021000AAEC23F0E652E652000E066E380E056E8A
:10022000120E046E0650E56E0550E56E0450E56E44
:100230007EEC27F0030EE126000EE56E020EE56E61
:1002400034EC29F0046EE652E652056A0550E56E7C
:100250000450E56EAAEC23F0E652E652000E066E5C
:10026000380E056E040E046E0650E56E0550E56E00
:100270000450E56E7EEC27F0030EE1260050010AE3
:1002800002E1015001E044D1800EE56EF3EC28F06C
:10029000E6520150E56E0050E56E000EE56E060E6A
:1002A000E56E2EEC27F0046EF3CF05F0040EE12688
:1002B000030E0426020E05220350E56E0250E56E81
:1002C000000EE56E030EE56E2EEC27F0066EF3CF02
:1002D00007F0040EE126065004260750052204C04C
:1002E000E9FF05C0EAFFEECF04F0EECF05F0EFCF57
:1002F00006F00650E56E0550E56E0450E56E7EECA6
:1003000027F0030EE126C00EE56EF3EC28F0E6526E
:1003100039EC2FF0046EF3CF05F00450051010E116
:10032000000E066E380E056E140E046E0650E56E55
:100330000550E56E0450E56E7EEC27F0030EE126D5
:1003400039EC2FF0046EF3CF05F00450010A02E1FE
:10035000055001E010D0000E066E380E056E260E18
:10036000046E0650E56E0550E56E0450E56E7EECB9
:1003700027F0030EE12639EC2FF0046EF3CF05F0E1
:100380000450020A02E1055001E010D0000E066E92
:10039000380E056E380E046E0650E56E0550E56E9B
:1003A0000450E56E7EEC27F0030EE12639EC2FF0C9
:1003B000046EF3CF05F00450030A02E1055001E09A
:1003C00010D0000E066E380E056E4A0E046E0650F2
:1003D000E56E0550E56E0450E56E7EEC27F0030EE9
:1003E000E12639EC2FF0046EF3CF05F00450040A37
:1003F00002E1055001E010D0000E066E380E056EC9
:100400005A0E046E0650E56E0550E56E0450E56E1A
:100410007EEC27F0030EE12639EC2FF0046EF3CFCB
:1004200005F00450050A02E1055001E023D0000E5A
:10043000066E380E056E6A0E046E0650E56E0550A7
:10044000E56E0450E56E7EEC27F0030EE126020116
:10045000F06B0201F16BD3EC2DF00201F03F02D002
:100460000201F12B050E0201F15D03E1DD0E020137
:10047000F05DF1E32EEC2FF0046EF3CF05F00450A5
:10048000030A02E1055001E043D0C00EE56EF3EC33
:1004900028F0E65278EC2FF0046E045010E1000EC4
:1004A000066E380E056E7A0E046E0650E56E055027
:1004B000E56E0450E56E7EEC27F0030EE12678EC45
:1004C0002FF0046E0450010A10E1000E066E380E83
:1004D000056E8C0E046E0650E56E0550E56E0450F8
:1004E000E56E7EEC27F0030EE1260201F06B0201BF
:1004F000F16BD3EC2DF00201F03F02D00201F12BA1
:10050000050E0201F15D03E1DD0E0201F05DF1E394
:100510000050020A02E1015001E0B7D0800EE56E02
:10052000F3EC28F0E6520150E56E0050E56E000E47
:10053000E56E060EE56E2EEC27F0046EF3CF05F0A7
:10054000040EE126030E0426020E05220350E56E7A
:100550000250E56E000EE56E030EE56E2EEC27F000
:10056000066EF3CF07F0040EE1260650042607506E
:10057000052204C0E9FF05C0EAFFEECF04F0EECF8C
:1005800005F0EFCF06F00650E56E0550E56E04501D
:10059000E56E7EEC27F0030EE126C00EE56EF3EC6F
:1005A00028F0E652000E066E380E056E9E0E046EA2
:1005B0000650E56E0550E56E0450E56E7EEC27F0C2
:1005C000030EE126000EE56E010EE56E46EC2CF002
:1005D000046EF3CF05F0E652E6520550E56E045086
:1005E000E56EAAEC23F0E652E652000E066E380ED7
:1005F000056EA40E046E0650E56E0550E56E0450BF
:10060000E56E7EEC27F0030EE126000EE56E020E8D
:10061000E56E46EC2CF0046EF3CF05F0E652E652A0
:100620000550E56E0450E56EAAEC23F0E652E65262
:10063000000E066E380E056EA60E046E0650E56EB0
:100640000550E56E0450E56E7EEC27F0030EE126C2
:100650004FEC2FF0046EF3CF05F00550E56E04501B
:10066000E56EAAEC23F0E652E652000E066E380E56
:10067000056EAA0E046E0650E56E0550E56E045038
:10068000E56E7EEC27F0030EE1260050030A02E13E
:10069000015001E06FD0800EE56EF3EC28F0E652D9
:1006A0000150E56E0050E56E000EE56E060EE56E3B
:1006B0002EEC27F0046EF3CF05F0040EE126030EB6
:1006C0000426020E05220350E56E0250E56E000E70
:1006D000E56E030EE56E2EEC27F0066EF3CF07F005
:1006E000040EE126065004260750052204C0E9FF47
:1006F00005C0EAFFEECF04F0EECF05F0EFCF06F035
:100700000650E56E0550E56E0450E56E7EEC27F070
:10071000030EE126C00EE56EF3EC28F0E65278EC0D
:100720002FF0046E045010E1000E066E380E056EB8
:10073000AE0E046E0650E56E0550E56E0450E56E93
:100740007EEC27F0030EE12678EC2FF0046E0450C7
:10075000010A10E1000E066E380E056EC00E046E22
:100760000650E56E0550E56E0450E56E7EEC27F010
:10077000030EE1260050040A02E1015010E000508F
:10078000050A02E101500BE00050060A02E10150A7
:1007900006E00050070A02E1015001E08AD0800E15
:1007A000E56EF3EC28F0E6520150E56E0050E56E80
:1007B000000EE56E060EE56E2EEC27F0046EF3CF0C
:1007C00005F0040EE126030E0426020E0522035056
:1007D000E56E0250E56E000EE56E030EE56E2EEC42
:1007E00027F0066EF3CF07F0040EE126065004262C
:1007F0000750052204C0E9FF05C0EAFFEECF04F070
:10080000EECF05F0EFCF06F00650E56E0550E56E31
:100810000450E56E7EEC27F0030EE126C00EE56E77
:10082000F3EC28F0E652000E066E380E056ED20E7E
:10083000046E0650E56E0550E56E0450E56E7EECE4
:1008400027F0030EE126000EE56E010EE56E46EC84
:100850002CF0046EF3CF05F0E652E6520550E56E3B
:100860000450E56EAAEC23F0E652E652000E066E46
:10087000380E056ED20E046E0650E56E0550E56E1C
:100880000450E56E7EEC27F0030EE126000EE56EC7
:10089000020EE56E46EC2CF0046EF3CF05F0E65246
:1008A000E6520550E56E0450E56EAAEC23F0E652E0
:1008B000E6520050080A02E1015001E06FD0800EBC
:1008C000E56EF3EC28F0E6520150E56E0050E56E5F
:1008D000000EE56E060EE56E2EEC27F0046EF3CFEB
:1008E00005F0040EE126030E0426020E0522035035
:1008F000E56E0250E56E000EE56E030EE56E2EEC21
:1009000027F0066EF3CF07F0040EE126065004260A
:100910000750052204C0E9FF05C0EAFFEECF04F04E
:10092000EECF05F0EFCF06F00650E56E0550E56E10
:100930000450E56E7EEC27F0030EE126C00EE56E56
:10094000F3EC28F0E65278EC2FF0046E045010E13E
:10095000000E066E380E056EDA0E046E0650E56E59
:100960000550E56E0450E56E7EEC27F0030EE1269F
:1009700078EC2FF0046E0450010A10E1000E066EB0
:10098000380E056EEC0E046E0650E56E0550E56EF1
:100990000450E56E7EEC27F0030EE1260050090AB4
:1009A00002E101500BE000500A0A02E1015006E0AA
:1009B00000500B0A02E1015001E08ED0800EE56E7E
:1009C000F3EC28F0E6520150E56E0050E56E000EA3
:1009D000E56E060EE56E2EEC27F0046EF3CF05F003
:1009E000040EE126030E0426020E05220350E56ED6
:1009F0000250E56E000EE56E030EE56E2EEC27F05C
:100A0000066EF3CF07F0040EE126065004260750C9
:100A1000052204C0E9FF05C0EAFFEECF04F0EECFE7
:100A200005F0EFCF06F00650E56E0550E56E045078
:100A3000E56E7EEC27F0030EE126C00EE56EF3ECCA
:100A400028F0E652000E066E380E056E0E0E046E8D
:100A50000650E56E0550E56E0450E56E7EEC27F01D
:100A6000030EE1265AEC2FF0046EF3CF05F005508B
:100A7000E56E0450E56EAAEC23F0E652E652000E55
:100A8000066E380E056E0E0E046E0650E56E0550AD
:100A9000E56E0450E56E7EEC27F0030EE1264FEC88
:100AA0002FF0046EF3CF05F00550E56E0450E56EAF
:100AB000AAEC23F0E652E652000E066E380E056EE2
:100AC000FE0E046E0650E56E0550E56E0450E56EB0
:100AD0007EEC27F0030EE12600500C0A02E10150E3
:100AE00001E06FD0800EE56EF3EC28F0E652015085
:100AF000E56E0050E56E000EE56E060EE56E2EEC1E
:100B000027F0046EF3CF05F0040EE126030E042651
:100B1000020E05220350E56E0250E56E000EE56EF2
:100B2000030EE56E2EEC27F0066EF3CF07F0040EF1
:100B3000E126065004260750052204C0E9FF05C03F
:100B4000EAFFEECF04F0EECF05F0EFCF06F006504F
:100B5000E56E0550E56E0450E56E7EEC27F0030E61
:100B6000E126C00EE56EF3EC28F0E65278EC2FF0AB
:100B7000046E045010E1000E066E390E056E060E6E
:100B8000046E0650E56E0550E56E0450E56E7EEC91
:100B900027F0030EE12678EC2FF0046E0450010AD2
:100BA00010E1000E066E390E056E180E046E06502A
:100BB000E56E0550E56E0450E56E7EEC27F0030E01
:100BC000E12600500D0A02E1015001E06FD0800ED5
:100BD000E56EF3EC28F0E6520150E56E0050E56E4C
:100BE000000EE56E060EE56E2EEC27F0046EF3CFD8
:100BF00005F0040EE126030E0426020E0522035022
:100C0000E56E0250E56E000EE56E030EE56E2EEC0D
:100C100027F0066EF3CF07F0040EE12606500426F7
:100C20000750052204C0E9FF05C0EAFFEECF04F03B
:100C3000EECF05F0EFCF06F00650E56E0550E56EFD
:100C40000450E56E7EEC27F0030EE126C00EE56E43
:100C5000F3EC28F0E65278EC2FF0046E045010E12B
:100C6000000E066E390E056E2A0E046E0650E56EF5
:100C70000550E56E0450E56E7EEC27F0030EE1268C
:100C800078EC2FF0046E0450010A10E1000E066E9D
:100C9000390E056E3C0E046E0650E56E0550E56E8D
:100CA0000450E56E7EEC27F0030EE12600500E0A9C
:100CB00002E1015001E054D0800EE56EF3EC28F023
:100CC000E6520150E56E0050E56E000EE56E060E30
:100CD000E56E2EEC27F0046EF3CF05F0040EE1264E
:100CE000030E0426020E05220350E56E0250E56E47
:100CF000000EE56E030EE56E2EEC27F0066EF3CFC8
:100D000007F0040EE126065004260750052204C011
:100D1000E9FF05C0EAFFEECF04F0EECF05F0EFCF1C
:100D200006F00650E56E0550E56E0450E56E7EEC6B
:100D300027F0030EE126C00EE56EF3EC28F0E65234
:100D4000000E066E380E056E140E046E0650E56E2B
:100D50000550E56E0450E56E7EEC27F0030EE126AB
:100D600000500F0A02E1015001E06FD0800EE56EE5
:100D7000F3EC28F0E6520150E56E0050E56E000EEF
:100D8000E56E060EE56E2EEC27F0046EF3CF05F04F
:100D9000040EE126030E0426020E05220350E56E22
:100DA0000250E56E000EE56E030EE56E2EEC27F0A8
:100DB000066EF3CF07F0040EE12606500426075016
:100DC000052204C0E9FF05C0EAFFEECF04F0EECF34
:100DD00005F0EFCF06F00650E56E0550E56E0450C5
:100DE000E56E7EEC27F0030EE126C00EE56EF3EC17
:100DF00028F0E65278EC2FF0046E045010E1000E5B
:100E0000066E390E056E4E0E046E0650E56E0550E8
:100E1000E56E0450E56E7EEC27F0030EE12678ECDB
:100E20002FF0046E0450010A10E1000E066E390E18
:100E3000056E600E046E0650E56E0550E56E0450BA
:100E4000E56E7EEC27F0030EE1260050100A02E169
:100E500001500BE00050110A02E1015006E0005081
:100E6000120A02E1015001E0AAD0800EE56EF3EC17
:100E700028F0E6520150E56E0050E56E000EE56E7A
:100E8000060EE56E2EEC27F0046EF3CF05F0040E8F
:100E9000E126030E0426020E05220350E56E0250E1
:100EA000E56E000EE56E030EE56E2EEC27F0066E85
:100EB000F3CF07F0040EE126065004260750052262
:100EC00004C0E9FF05C0EAFFEECF04F0EECF05F065
:100ED000EFCF06F00650E56E0550E56E0450E56E66
:100EE0007EEC27F0030EE126C00EE56EF3EC28F051
:100EF000E652000EE56E030EE56E34EC29F0046E4A
:100F0000E652E652056A0550E56E0450E56EAAEC1D
:100F100023F0E652E652000E066E380E056E0C0EF9
:100F2000046E0650E56E0550E56E0450E56E7EECED
:100F300027F0030EE126000EE56E040EE56E34EC9C
:100F400029F0046EE652E652056A0550E56E04503B
:100F5000E56EAAEC23F0E652E652000E066E380E5D
:100F6000056E0C0E046E0650E56E0550E56E0450DD
:100F7000E56E7EEC27F0030EE126000EE56E050E11
:100F8000E56E34EC29F0046EE652E652056A05502F
:100F9000E56E0450E56EAAEC23F0E652E652000E30
:100FA000066E390E056E720E046E0650E56E055023
:100FB000E56E0450E56E7EEC27F0030EE12600504E
:100FC000130A02E1015001E06FD0800EE56EF3ECF0
:100FD00028F0E6520150E56E0050E56E000EE56E19
:100FE000060EE56E2EEC27F0046EF3CF05F0040E2E
:100FF000E126030E0426020E05220350E56E025080
:10100000E56E000EE56E030EE56E2EEC27F0066E23
:10101000F3CF07F0040EE126065004260750052200
:1010200004C0E9FF05C0EAFFEECF04F0EECF05F003
:10103000EFCF06F00650E56E0550E56E0450E56E04
:101040007EEC27F0030EE126C00EE56EF3EC28F0EF
:10105000E65278EC2FF0046E045010E1000E066E9C
:10106000390E056E7C0E046E0650E56E0550E56E79
:101070000450E56E7EEC27F0030EE12678EC2FF0AD
:10108000046E0450010A10E1000E066E390E056E62
:101090008E0E046E0650E56E0550E56E0450E56E4A
:1010A0007EEC27F0030EE1260050140A02E1015005
:1010B0000BE00050150A02E1015006E00050160A4C
:1010C00002E1015001E098D0800EE56EF3EC28F0CB
:1010D000E6520150E56E0050E56E000EE56E060E1C
:1010E000E56E2EEC27F0046EF3CF05F0040EE1263A
:1010F000030E0426020E05220350E56E0250E56E33
:10110000000EE56E030EE56E2EEC27F0066EF3CFB3
:1011100007F0040EE126065004260750052204C0FD
:10112000E9FF05C0EAFFEECF04F0EECF05F0EFCF08
:1011300006F00650E56E0550E56E0450E56E7EEC57
:1011400027F0030EE126C00EE56EF3EC28F0E65220
:10115000000E066E380E056E0E0E046E0650E56E1D
:101160000550E56E0450E56E7EEC27F0030EE12697
:10117000000EE56E010EE56E34EC29F0046EE652C9
:10118000E652056A0550E56E0450E56EAAEC23F0C0
:10119000E652E652000E066E380E056E120E046E12
:1011A0000650E56E0550E56E0450E56E7EEC27F0C6
:1011B000030EE126000EE56E020EE56E34EC29F01A
:1011C000046EE652E652056A0550E56E0450E56E7F
:1011D000AAEC23F0E652E652000E066E390E056EBA
:1011E000A00E046E0650E56E0550E56E0450E56EE7
:1011F0007EEC27F0030EE1260050170A02E10150B1
:1012000001E054D0800EE56EF3EC28F0E652015078
:10121000E56E0050E56E000EE56E060EE56E2EECF6
:1012200027F0046EF3CF05F0040EE126030E04262A
:10123000020E05220350E56E0250E56E000EE56ECB
:10124000030EE56E2EEC27F0066EF3CF07F0040ECA
:10125000E126065004260750052204C0E9FF05C018
:10126000EAFFEECF04F0EECF05F0EFCF06F0065028
:10127000E56E0550E56E0450E56E7EEC27F0030E3A
:10128000E126C00EE56EF3EC28F0E652000E066E85
:10129000380E056E140E046E0650E56E0550E56EB0
:1012A0000450E56E7EEC27F0030EE1260050180A8C
:1012B00002E1015001E06FD0800EE56EF3EC28F002
:1012C000E6520150E56E0050E56E000EE56E060E2A
:1012D000E56E2EEC27F0046EF3CF05F0040EE12648
:1012E000030E0426020E05220350E56E0250E56E41
:1012F000000EE56E030EE56E2EEC27F0066EF3CFC2
:1013000007F0040EE126065004260750052204C00B
:10131000E9FF05C0EAFFEECF04F0EECF05F0EFCF16
:1013200006F00650E56E0550E56E0450E56E7EEC65
:1013300027F0030EE126C00EE56EF3EC28F0E6522E
:1013400078EC2FF0046E045010E1000E066E390E9A
:10135000056EAA0E046E0650E56E0550E56E04504B
:10136000E56E7EEC27F0030EE12678EC2FF0046E9C
:101370000450010A10E1000E066E390E056EBC0E17
:10138000046E0650E56E0550E56E0450E56E7EEC89
:1013900027F0030EE1260050190A02E1015001E096
:1013A00031D1800EE56EF3EC28F0E6520150E56E87
:1013B0000050E56E000EE56E060EE56E2EEC27F091
:1013C000046EF3CF05F0040EE126030E0426020E90
:1013D00005220350E56E0250E56E000EE56E030E29
:1013E000E56E2EEC27F0066EF3CF07F0040EE12633
:1013F000065004260750052204C0E9FF05C0EAFF95
:10140000EECF04F0EECF05F0EFCF06F00650E56E1C
:101410000550E56E0450E56E7EEC27F0030EE126E4
:10142000C00EE56EF3EC28F0E65239EC2FF0046EB6
:10143000F3CF05F00450051010E1000E066E380ED3
:10144000056E140E046E0650E56E0550E56E0450F0
:10145000E56E7EEC27F0030EE12639EC2FF0046EEA
:10146000F3CF05F00450010A02E1055001E010D06D
:10147000000E066E380E056E260E046E0650E56EE2
:101480000550E56E0450E56E7EEC27F0030EE12674
:1014900039EC2FF0046EF3CF05F00450020A02E19C
:1014A000055001E010D0000E066E380E056E380EA5
:1014B000046E0650E56E0550E56E0450E56E7EEC58
:1014C00027F0030EE12639EC2FF0046EF3CF05F080
:1014D0000450030A02E1055001E010D0000E066E30
:1014E000380E056E4A0E046E0650E56E0550E56E28
:1014F0000450E56E7EEC27F0030EE12639EC2FF068
:10150000046EF3CF05F00450040A02E1055001E037
:1015100010D0000E066E380E056E5A0E046E065080
:10152000E56E0550E56E0450E56E7EEC27F0030E87
:10153000E12639EC2FF0046EF3CF05F00450050AD4
:1015400002E1055001E010D0000E066E380E056E67
:101550006A0E046E0650E56E0550E56E0450E56EA9
:101560007EEC27F0030EE1262EEC2FF0046EF3CF75
:1015700005F00450030A02E1055001E043D0C00E1B
:10158000E56EF3EC28F0E65278EC2FF0046E045090
:1015900010E1000E066E380E056E7A0E046E0650CF
:1015A000E56E0550E56E0450E56E7EEC27F0030E07
:1015B000E12678EC2FF0046E0450010A10E1000ED1
:1015C000066E380E056E8C0E046E0650E56E0550E4
:1015D000E56E0450E56E7EEC27F0030EE126020175
:1015E000F06B0201F16BD3EC2DF00201F03F02D061
:1015F0000201F12B050E0201F15D03E1DD0E020196
:10160000F05DF1E300501A0A02E1015002E040EF00
:101610000DF0800EE56EF3EC28F0E6520150E56E19
:101620000050E56E000EE56E060EE56E2EEC27F01E
:10163000046EF3CF05F0040EE126030E0426020E1D
:1016400005220350E56E0250E56E000EE56E030EB6
:10165000E56E2EEC27F0066EF3CF07F0040EE126C0
:10166000065004260750052204C0E9FF05C0EAFF22
:10167000EECF04F0EECF05F0EFCF06F00650E56EAA
:101680000550E56E0450E56E7EEC27F0030EE12672
:10169000C00EE56EF3EC28F0E65239EC2FF0046E44
:1016A000F3CF05F00450051010E1000E066E380E61
:1016B000056E140E046E0650E56E0550E56E04507E
:1016C000E56E7EEC27F0030EE12639EC2FF0046E78
:1016D000F3CF05F00450010A02E1055001E010D0FB
:1016E000000E066E380E056E260E046E0650E56E70
:1016F0000550E56E0450E56E7EEC27F0030EE12602
:1017000039EC2FF0046EF3CF05F00450020A02E129
:10171000055001E010D0000E066E380E056E380E32
:10172000046E0650E56E0550E56E0450E56E7EECE5
:1017300027F0030EE12639EC2FF0046EF3CF05F00D
:101740000450030A02E1055001E010D0000E066EBD
:10175000390E056ECE0E046E0650E56E0550E56E30
:101760000450E56E7EEC27F0030EE12639EC2FF0F5
:10177000046EF3CF05F00450040A02E1055001E0C5
:1017800010D0000E066E390E056EE00E046E065087
:10179000E56E0550E56E0450E56E7EEC27F0030E15
:1017A000E12639EC2FF0046EF3CF05F00450050A62
:1017B00002E1055001E010D0000E066E390E056EF4
:1017C000F20E046E0650E56E0550E56E0450E56EAF
:1017D0007EEC27F0030EE126C00EE56EF3EC28F058
:1017E000E65239EC2FF0046EF3CF05F00450050AF1
:1017F00002E1055001E010D0000E066E380E056EB5
:10180000140E046E0650E56E0550E56E0450E56E4C
:101810007EEC27F0030EE12639EC2FF0046EF3CFB7
:1018200005F00450060A02E1055001E010D0000E58
:10183000066E380E056E260E046E0650E56E0550D7
:10184000E56E0450E56E7EEC27F0030EE12639ECE0
:101850002FF0046EF3CF05F00450070A02E10550A3
:1018600001E010D0000E066E380E056E380E046EC4
:101870000650E56E0550E56E0450E56E7EEC27F0EF
:10188000030EE12639EC2FF0046EF3CF05F004507F
:10189000080A02E1055001E010D0000E066E390E74
:1018A000056ECE0E046E0650E56E0550E56E0450D2
:1018B000E56E7EEC27F0030EE12639EC2FF0046E86
:1018C000F3CF05F00450090A02E1055001E010D001
:1018D000000E066E390E056EE00E046E0650E56EC3
:1018E0000550E56E0450E56E7EEC27F0030EE12610
:1018F00039EC2FF0046EF3CF05F004500A0A02E130
:10190000055001E023D0000E066E390E056EF20E72
:10191000046E0650E56E0550E56E0450E56E7EECF3
:1019200027F0030EE1260201F06B0201F16BD3EC0C
:101930002DF00201F03F02D00201F12B050E020151
:10194000F15D03E1DD0E0201F05DF1E32EEC2FF01D
:10195000046EF3CF05F00450010A02E1055001E0E6
:1019600043D0C00EE56EF3EC28F0E65278EC2FF091
:10197000046E045010E1000E066E380E056E7A0EED
:10198000046E0650E56E0550E56E0450E56E7EEC83
:1019900027F0030EE12678EC2FF0046E0450010AC4
:1019A00010E1000E066E380E056E8C0E046E0650A9
:1019B000E56E0550E56E0450E56E7EEC27F0030EF3
:1019C000E1260201F06B0201F16BD3EC2DF0020174
:1019D000F03F02D00201F12B050E0201F15D03E19F
:1019E000DD0E0201F05DF1E323EC2FF0046EF3CF86
:1019F00005F004500510D8B443D0C00EE56EF3ECEA
:101A000028F0E65278EC2FF0046E045010E1000E3E
:101A1000066E3A0E056E040E046E0650E56E055015
:101A2000E56E0450E56E7EEC27F0030EE12678ECBF
:101A30002FF0046E0450010A10E1000E066E3A0EFB
:101A4000056E160E046E0650E56E0550E56E0450E8
:101A5000E56E7EEC27F0030EE1260201F06B020139
:101A6000F16BD3EC2DF00201F03F02D00201F12B1B
:101A7000050E0201F15D03E1DD0E0201F05DF1E30F
:101A80000050210A02E1015001E043D0C00EE56E92
:101A9000F3EC28F0E65278EC2FF0046E045010E1DD
:101AA000000E066E3A0E056E280E046E0650E56EA8
:101AB0000550E56E0450E56E7EEC27F0030EE1263E
:101AC00078EC2FF0046E0450010A10E1000E066E4F
:101AD0003A0E056E3A0E046E0650E56E0550E56E40
:101AE0000450E56E7EEC27F0030EE1260201F06B58
:101AF0000201F16BD3EC2DF00201F03F02D00201A4
:101B0000F12B050E0201F15D03E1DD0E0201F05D36
:101B1000F1E300501B0A02E1015001E06FD0800E9A
:101B2000E56EF3EC28F0E6520150E56E0050E56EEC
:101B3000000EE56E060EE56E2EEC27F0046EF3CF78
:101B400005F0040EE126030E0426020E05220350C2
:101B5000E56E0250E56E000EE56E030EE56E2EECAE
:101B600027F0066EF3CF07F0040EE1260650042698
:101B70000750052204C0E9FF05C0EAFFEECF04F0DC
:101B8000EECF05F0EFCF06F00650E56E0550E56E9E
:101B90000450E56E7EEC27F0030EE126C00EE56EE4
:101BA000F3EC28F0E65278EC2FF0046E045010E1CC
:101BB000000E066E3A0E056E4C0E046E0650E56E73
:101BC0000550E56E0450E56E7EEC27F0030EE1262D
:101BD00078EC2FF0046E0450010A10E1000E066E3E
:101BE0003A0E056E5E0E046E0650E56E0550E56E0B
:101BF0000450E56E7EEC27F0030EE12600501C0A2F
:101C000002E1015001E044D1800EE56EF3EC28F0D2
:101C1000E6520150E56E0050E56E000EE56E060ED0
:101C2000E56E2EEC27F0046EF3CF05F0040EE126EE
:101C3000030E0426020E05220350E56E0250E56EE7
:101C4000000EE56E030EE56E2EEC27F0066EF3CF68
:101C500007F0040EE126065004260750052204C0B2
:101C6000E9FF05C0EAFFEECF04F0EECF05F0EFCFBD
:101C700006F00650E56E0550E56E0450E56E7EEC0C
:101C800027F0030EE126C00EE56EF3EC28F0E652D5
:101C900039EC2FF0046EF3CF05F00450051010E17D
:101CA000000E066E380E056E140E046E0650E56EBC
:101CB0000550E56E0450E56E7EEC27F0030EE1263C
:101CC00039EC2FF0046EF3CF05F00450010A02E165
:101CD000055001E010D0000E066E380E056E260E7F
:101CE000046E0650E56E0550E56E0450E56E7EEC20
:101CF00027F0030EE12639EC2FF0046EF3CF05F048
:101D00000450020A02E1055001E010D0000E066EF8
:101D1000380E056E380E046E0650E56E0550E56E01
:101D20000450E56E7EEC27F0030EE12639EC2FF02F
:101D3000046EF3CF05F00450030A02E1055001E000
:101D400010D0000E066E380E056E4A0E046E065058
:101D5000E56E0550E56E0450E56E7EEC27F0030E4F
:101D6000E12639EC2FF0046EF3CF05F00450040A9D
:101D700002E1055001E010D0000E066E380E056E2F
:101D80005A0E046E0650E56E0550E56E0450E56E81
:101D90007EEC27F0030EE12639EC2FF0046EF3CF32
:101DA00005F00450050A02E1055001E023D0000EC1
:101DB000066E380E056E6A0E046E0650E56E05500E
:101DC000E56E0450E56E7EEC27F0030EE12602017D
:101DD000F06B0201F16BD3EC2DF00201F03F02D069
:101DE0000201F12B050E0201F15D03E1DD0E02019E
:101DF000F05DF1E32EEC2FF0046EF3CF05F004500C
:101E0000030A02E1055001E043D0C00EE56EF3EC99
:101E100028F0E65278EC2FF0046E045010E1000E2A
:101E2000066E380E056E7A0E046E0650E56E05508D
:101E3000E56E0450E56E7EEC27F0030EE12678ECAB
:101E40002FF0046E0450010A10E1000E066E380EE9
:101E5000056E8C0E046E0650E56E0550E56E04505E
:101E6000E56E7EEC27F0030EE1260201F06B020125
:101E7000F16BD3EC2DF00201F03F02D00201F12B07
:101E8000050E0201F15D03E1DD0E0201F05DF1E3FB
:101E900000501D0A02E1015001E06FD0800EE56E96
:101EA000F3EC28F0E6520150E56E0050E56E000EAE
:101EB000E56E060EE56E2EEC27F0046EF3CF05F00E
:101EC000040EE126030E0426020E05220350E56EE1
:101ED0000250E56E000EE56E030EE56E2EEC27F067
:101EE000066EF3CF07F0040EE126065004260750D5
:101EF000052204C0E9FF05C0EAFFEECF04F0EECFF3
:101F000005F0EFCF06F00650E56E0550E56E045083
:101F1000E56E7EEC27F0030EE126C00EE56EF3ECD5
:101F200028F0E65278EC2FF0046E045010E1000E19
:101F3000066E3A0E056E700E046E0650E56E055084
:101F4000E56E0450E56E7EEC27F0030EE12678EC9A
:101F50002FF0046E0450010A10E1000E066E3A0ED6
:101F6000056E820E046E0650E56E0550E56E045057
:101F7000E56E7EEC27F0030EE12600501E0A02E11A
:101F8000015001E06FD0800EE56EF3EC28F0E652D0
:101F90000150E56E0050E56E000EE56E060EE56E32
:101FA0002EEC27F0046EF3CF05F0040EE126030EAD
:101FB0000426020E05220350E56E0250E56E000E67
:101FC000E56E030EE56E2EEC27F0066EF3CF07F0FC
:101FD000040EE126065004260750052204C0E9FF3E
:101FE00005C0EAFFEECF04F0EECF05F0EFCF06F02C
:101FF0000650E56E0550E56E0450E56E7EEC27F068
:10200000030EE126C00EE56EF3EC28F0E65278EC04
:102010002FF0046E045010E1000E066E3A0E056EAD
:10202000940E046E0650E56E0550E56E0450E56EA4
:102030007EEC27F0030EE12678EC2FF0046E0450BE
:10204000010A10E1000E066E3A0E056EA60E046E31
:102050000650E56E0550E56E0450E56E7EEC27F007
:10206000030EE12600501F0A02E1015001E054D0A6
:10207000800EE56EF3EC28F0E6520150E56E00505C
:10208000E56E000EE56E060EE56E2EEC27F0046E92
:10209000F3CF05F0040EE126030E0426020E0522FE
:1020A0000350E56E0250E56E000EE56E030EE56E20
:1020B0002EEC27F0066EF3CF07F0040EE126065053
:1020C00004260750052204C0E9FF05C0EAFFEECF51
:1020D00004F0EECF05F0EFCF06F00650E56E0550A8
:1020E000E56E0450E56E7EEC27F0030EE126C00E8F
:1020F000E56EF3EC28F0E652000E066E380E056E23
:10210000140E046E0650E56E0550E56E0450E56E43
:102110007EEC27F0030EE1260050200A02E1015078
:1021200001E07DD1800EE56EF3EC28F0E65201501F
:10213000E56E0050E56E000EE56E060EE56E2EECC7
:1021400027F0006EF3CF01F0040EE126030E002607
:10215000020E01220350E56E0250E56E000EE56EA0
:10216000030EE56E2EEC27F0026EF3CF03F0040EA3
:10217000E126025000260350012200C0E9FF01C001
:10218000EAFFEECF00F0EECF01F0EFCF02F0025009
:10219000E56E0150E56E0050E56E7EEC27F0030E13
:1021A000E126C00EE56EF3EC28F0E65239EC2FF094
:1021B000006EF3CF01F00050011010E1000E026E2E
:1021C000380E016E140E006E0250E56E0150E56E81
:1021D0000050E56E7EEC27F0030EE12639EC2FF07F
:1021E000006EF3CF01F00050010A02E1015001E05E
:1021F00010D0000E026E380E016E260E006E0250D8
:10220000E56E0150E56E0050E56E7EEC27F0030EA2
:10221000E12639EC2FF0006EF3CF01F00050020AF6
:1022200002E1015001E010D0000E026E380E016E86
:10223000380E006E0250E56E0150E56E0050E56EFE
:102240007EEC27F0030EE12639EC2FF0006EF3CF81
:1022500001F00050030A02E1015001E010D0000E2D
:10226000026E380E016E4A0E006E0250E56E01508D
:10227000E56E0050E56E7EEC27F0030EE12639ECAA
:102280002FF0006EF3CF01F00050040A02E101507C
:1022900001E010D0000E026E380E016E5A0E006E74
:1022A0000250E56E0150E56E0050E56E7EEC27F0C1
:1022B000030EE12639EC2FF0006EF3CF01F0005051
:1022C000050A02E1015001E010D0000E026E380E46
:1022D000016E6A0E006E0250E56E0150E56E005010
:1022E000E56E7EEC27F0030EE126C00EE56EF3EC02
:1022F00028F0E6522EEC2FF0006EF3CF01F00050E4
:10230000030A02E1015001E043D0C00EE56EF3EC98
:1023100028F0E65278EC2FF0006E005010E1000E2D
:10232000026E380E016E7A0E006E0250E56E01509C
:10233000E56E0050E56E7EEC27F0030EE12678ECAA
:102340002FF0006E0050010A10E1000E026E380EF0
:10235000016E8C0E006E0250E56E0150E56E00506D
:10236000E56E7EEC27F0030EE1260201F06B020120
:10237000F16BD3EC2DF00201F03F02D00201F12B02
:10238000050E0201F15D03E1DD0E0201F05DF1E3F6
:1023900023EC2FF0006EF3CF01F000500110D8B401
:1023A0003ED078EC2FF0006E005010E1000E026E6F
:1023B0003A0E016EB80E006E0250E56E0150E56EE9
:1023C0000050E56E7EEC27F0030EE12678EC2FF04E
:1023D000006E0050010A10E1000E026E3A0E016E0E
:1023E000CA0E006E0250E56E0150E56E0050E56EBB
:1023F0007EEC27F0030EE1260201F06B0201F16B87
:10240000D3EC2DF00201F03F02D00201F12B050EBA
:102410000201F15D03E1DD0E0201F05DF1E3E4CFC5
:1024200007F0E4CF06F0E4CF05F0E4CF04F0E4CF0A
:1024300003F0E4CF02F0E4CF01F0E4CF00F0E4CF0A
:10244000D9FF1200D9CFE5FFE1CFD9FF00C0E5FFEA
:1024500001C0E5FF02C0E5FF03C0E5FF04C0E5FFE2
:10246000DDEC26F0006EF3CF01F00050E56E73EC6A
:102470002CF0E65281EC2FF0016E220E015CD8B0F8
:10248000D3EF1BF0FA6AFB6A0134FA36E834FA3605
:10249000FC0BA20FE56E240EFA22000EFB22E45084
:1024A000F96E95EF12F0B5EF12F0F8EF12F01EEFA3
:1024B00013F03FEF13F0E0EF13F079EF14F01AEFA1
:1024C00015F0B3EF15F0D4EF15F017EF16F057EF46
:1024D00016F0C5EF16F0EBEF16F00EEF17F034EF35
:1024E00017F055EF17F0BDEF17F02BEF18F094EF42
:1024F00018F0B5EF18F026EF19F09BEF19F00BEF7D
:102500001AF02FEF1AF04EEF1AF07BEF1AF0DBEF14
:102510001AF0FAEF1AF01FEF1BF046EF1BF06DEF09
:102520001BF099EF1BF0D5EF1AF00CEC2DF0000129
:102530008F6F2FEC2DF00001906FE9EC2CF0000173
:10254000916F75EC2DF00001926FC6EC2CF000013C
:10255000936F0050040A02E0D3EF1BF0010EE56E0A
:1025600065EC2FF0E652D3EF1BF02EEC2FF0016E4E
:10257000F3CF02F00150030A02E1025001E005D05E
:10258000000EE56E65EC2FF0E65244EC2FF0016E84
:10259000F3CF02F00150021010E000018E51E56E01
:1025A00002EC20F0016EF3CF02F0E6520150010A76
:1025B00002E1025002E0D3EF1BF081EC2FF0016E3C
:1025C000026A78EC2FF0036E046A0450E56E035043
:1025D000E56E0250E56E0150E56E02EC00F0040E6F
:1025E000E126020EE56E65EC2FF0E652D3EF1BF00C
:1025F0000050040A05E1030EE56E65EC2FF0E6528B
:102600000050020A03E00050030A05E1000EE56EE7
:1026100065EC2FF0E6520050010A05E10C0EE56E64
:1026200065EC2FF0E6520050D8A4D3EF1BF01F0E3C
:10263000E56E65EC2FF0E652D3EF1BF00050040A74
:1026400005E1040EE56E65EC2FF0E6520050020A3B
:1026500003E00050030A05E1020EE56E65EC2FF081
:10266000E6520050010A04E00050D8A4D3EF1BF05A
:10267000080EE56E65EC2FF0E652D3EF1BF000502C
:102680002DE1000EE56E020EE56E46EC2CF0016EBB
:10269000F3CF02F0E652E6520250800F800F02E1C3
:1026A0005B0E015C1BE2000EE56E020EE56E46EC71
:1026B0002CF0016EF3CF02F0E652E6520A0E01262C
:1026C000D8B0022A000EE56E020EE56E0250E56EED
:1026D0000150E56EA2EC2AF0040EE1260050010A3A
:1026E00001E052D0000EE56E020EE56E46EC2CF0D5
:1026F000016EF3CF02F0E652E6520250800F800FD7
:1027000002E10A0E015CD8A03FD0000EE56E010E7A
:10271000E56E46EC2CF0016EF3CF02F0E652E65285
:102720000A0E0126D8B0022A000EE56E020EE56EF2
:1027300046EC2CF0036EF3CF04F0E652E652025062
:10274000800FF36E0450800FF35C02E10350015CD4
:102750001BE2000EE56E020EE56E46EC2CF0016EFB
:10276000F3CF02F0E652E652F60E0126D8A002069A
:10277000000EE56E020EE56E0250E56E0150E56E4C
:10278000A2EC2AF0040EE1260050030A05E1050E32
:10279000E56E65EC2FF0E6520050020A05E1070EE7
:1027A000E56E65EC2FF0E6520050040A02E0D3EF2C
:1027B0001BF0030EE56E65EC2FF0E652D3EF1BF035
:1027C00000502BE1000EE56E020EE56E46EC2CF09B
:1027D000016EF3CF02F0E652E6520250800F800FF6
:1027E00002E1640E015C19E2000EE56E020EE56E78
:1027F00046EC2CF0016EF3CF02F0E652E652014AAD
:10280000022A000EE56E020EE56E0250E56E0150E2
:10281000E56EA2EC2AF0040EE1260050010A01E068
:102820004CD0000EE56E020EE56E46EC2CF0016E0B
:10283000F3CF02F0E652E6520250800F800F02E121
:10284000010E015C3AE3000EE56E010EE56E46EC0A
:102850002CF0016EF3CF02F0E652E652000EE56E68
:10286000020EE56E46EC2CF0036EF3CF04F0E65258
:10287000E6520250800FF36E0450800FF35C02E1C9
:102880000350015C1AE2000EE56E020EE56E46ECA6
:102890002CF0016EF3CF02F0E652E652FF0E012655
:1028A0000222000EE56E020EE56E0250E56E01504A
:1028B000E56EA2EC2AF0040EE1260050030A05E1C1
:1028C000060EE56E65EC2FF0E6520050020A05E1B7
:1028D000040EE56E65EC2FF0E6520050040A02E0AB
:1028E000D3EF1BF0030EE56E65EC2FF0E652D3EF4D
:1028F0001BF00050D8A452D0000EE56E010EE56E1C
:1029000046EC2CF0016EF3CF02F0E652E652025094
:10291000800F800F02E15B0E015CD8B03FD0000E4B
:10292000E56E010EE56E46EC2CF0016EF3CF02F081
:10293000E652E652000EE56E020EE56E46EC2CF015
:10294000036EF3CF04F0E652E652F60E0326D8A04B
:1029500004060250800FF36E0450800FF35C02E116
:102960000350015C1BE2000EE56E010EE56E46ECC5
:102970002CF0016EF3CF02F0E652E6520A0E012669
:10298000D8B0022A000EE56E010EE56E0250E56E2B
:102990000150E56EA2EC2AF0040EE1260050010A77
:1029A0002DE1000EE56E010EE56E46EC2CF0016E99
:1029B000F3CF02F0E652E6520250800F800F02E1A0
:1029C0000A0E015C1BE3000EE56E010EE56E46EC9F
:1029D0002CF0016EF3CF02F0E652E652F60E01261D
:1029E000D8A00206000EE56E010EE56E0250E56EFF
:1029F0000150E56EA2EC2AF0040EE1260050030A15
:102A000005E1070EE56E65EC2FF0E6520050020A74
:102A100005E1050EE56E65EC2FF0E6520050040A64
:102A200002E0D3EF1BF0030EE56E65EC2FF0E652EB
:102A3000D3EF1BF00050D8A44BD0000EE56E010E72
:102A4000E56E46EC2CF0016EF3CF02F0E652E65252
:102A50000250800F800F02E1640E015C39E2000E2B
:102A6000E56E010EE56E46EC2CF0016EF3CF02F040
:102A7000E652E652000EE56E020EE56E46EC2CF0D4
:102A8000036EF3CF04F0E652E6520250800FF36E6D
:102A90000450800FF35C02E10350015C19E2000E68
:102AA000E56E010EE56E46EC2CF0016EF3CF02F000
:102AB000E652E652014A022A000EE56E010EE56E6C
:102AC0000250E56E0150E56EA2EC2AF0040EE126FC
:102AD0000050010A2CE1000EE56E010EE56E46EC99
:102AE0002CF0016EF3CF02F0E652E6520250800F56
:102AF000800F02E1010E015C1AE3000EE56E010E8B
:102B0000E56E46EC2CF0016EF3CF02F0E652E65291
:102B1000FF0E01260222000EE56E010EE56E025048
:102B2000E56E0150E56EA2EC2AF0040EE12600509D
:102B3000030A05E1040EE56E65EC2FF0E652005045
:102B4000020A05E1060EE56E65EC2FF0E652005034
:102B5000040A02E0D3EF1BF0030EE56E65EC2FF0E4
:102B6000E652D3EF1BF00050040A05E1090EE56EB2
:102B700065EC2FF0E6520050020A03E00050030A11
:102B800005E1020EE56E65EC2FF0E6520050010AF9
:102B900004E00050D8A4D3EF1BF0030EE56E65EC03
:102BA0002FF0E652D3EF1BF0005011E15AEC2FF05A
:102BB000016EF3CF02F00A0E0126D8B0022A0250AD
:102BC000E56E0150E56EF1EC2EF0E652E652005053
:102BD000010A11E15AEC2FF0016EF3CF02F0F60E6C
:102BE0000126D8A002060250E56E0150E56EF1EC18
:102BF0002EF0E652E6520050030A05E10A0EE56E99
:102C000065EC2FF0E6520050020A05E10B0EE56E6E
:102C100065EC2FF0E6520050040A02E0D3EF1BF0FF
:102C2000080EE56E65EC2FF0E652D3EF1BF0005076
:102C30000FE15AEC2FF0016EF3CF02F0014A022AA5
:102C40000250E56E0150E56EF1EC2EF0E652E652D0
:102C50000050010A10E15AEC2FF0016EF3CF02F0A0
:102C6000FF0E012602220250E56E0150E56EF1ECE6
:102C70002EF0E652E6520050030A05E10B0EE56E17
:102C800065EC2FF0E6520050020A05E1090EE56EF0
:102C900065EC2FF0E6520050040A02E0D3EF1BF07F
:102CA000080EE56E65EC2FF0E652D3EF1BF00050F6
:102CB00028E14FEC2FF0016EF3CF02F00250800FAD
:102CC000590F02E1110E015C1CE24FEC2FF0016E76
:102CD000F3CF02F00250E56E0150E56E000EE56E96
:102CE0000A0EE56E2EEC27F0016EF3CF02F0040E13
:102CF000E1260250E56E0150E56EE4EC2EF0E6525E
:102D0000E6520050010A25E14FEC2FF0016EF3CF9F
:102D100002F0D88002AED8901CE24FEC2FF0016E8A
:102D2000F3CF02F0000EE56E0A0EE56E0250E56E7E
:102D30000150E56EF5EC21F0016EF3CF02F0040EC8
:102D4000E1260250E56E0150E56EE4EC2EF0E6520D
:102D5000E6520050030A05E1090EE56E65EC2FF01E
:102D6000E6520050020A05E10A0EE56E65EC2FF00E
:102D7000E6520050040A02E0D3EF1BF0080EE56EA5
:102D800065EC2FF0E652D3EF1BF0005005E1020E88
:102D9000E56E65EC2FF0E6520050010A05E10E0EDB
:102DA000E56E65EC2FF0E6520050030A03E0005098
:102DB000020A05E1000EE56E65EC2FF0E6520050C8
:102DC000040A02E0D3EF1BF00D0EE56E65EC2FF068
:102DD000E652D3EF1BF0005009E178EC2FF0016EC2
:102DE000012A0150E56E87EC2EF0E6520050010AF0
:102DF00009E178EC2FF0016E01060150E56E87ECD9
:102E00002EF0E6520050040A02E0D3EF1BF00C0E45
:102E1000E56E65EC2FF0E652D3EF1BF0005005E1B4
:102E20000C0EE56E65EC2FF0E6520050010A05E14C
:102E3000170EE56E65EC2FF0E6520050030A03E032
:102E40000050020A05E1000EE56E65EC2FF0E65237
:102E50000050040A02E0D3EF1BF00F0EE56E65ECA4
:102E60002FF0E652D3EF1BF0005003E00050010AB0
:102E700005E1130EE56E65EC2FF0E6520050020AF4
:102E800003E00050030A05E10E0EE56E65EC2FF03D
:102E9000E6520050040A02E0D3EF1BF0100EE56E7C
:102EA00065EC2FF0E652D3EF1BF0005017E191C014
:102EB00001F0026A014A022A000EE56E1F0EE56E5D
:102EC0000250E56E0150E56E6CEC22F0016EF3CF1E
:102ED00002F0040EE12601500001916F0050010A3A
:102EE0001EE191C001F0026AFF0E01260222000ECF
:102EF000E56E200EE56E0250E56E0150E56E6CEC5D
:102F000022F0016EF3CF02F0040EE1260150000121
:102F1000916F0001915103E11F0E0001916F00506C
:102F2000030A0BE100019151E56E43EC2BF0E652F0
:102F3000110EE56E65EC2FF0E6520050020A0BE12F
:102F400000019151E56E43EC2BF0E652120EE56E56
:102F500065EC2FF0E6520050040A02E0D3EF1BF0BC
:102F600000019151E56E43EC2BF0E6520F0EE56E39
:102F700065EC2FF0E652D3EF1BF000501DE192C03C
:102F800001F0026A014A022A000EE56E0D0EE56E9E
:102F90000250E56E0150E56E6CEC22F0016EF3CF4D
:102FA00002F0040EE12601500001926F00019251DF
:102FB00003E1010E0001926F0050010A1EE192C070
:102FC00001F0026AFF0E01260222000EE56E0D0ED0
:102FD000E56E0250E56E0150E56E6CEC22F0016E7C
:102FE000F3CF02F0040EE12601500001926F0001C0
:102FF000925103E10C0E0001926F0050030A0BE1A5
:1030000000019251E56E0EEC2BF0E652120EE56EC9
:1030100065EC2FF0E6520050020A0BE100019251DC
:10302000E56E0EEC2BF0E652100EE56E65EC2FF01F
:10303000E6520050040A02E0D3EF1BF00001925167
:10304000E56E0EEC2BF0E6520F0EE56E65EC2FF000
:10305000E652D3EF1BF0005017E193C001F0026A73
:10306000014A022A000EE56E640EE56E0250E56E1E
:103070000150E56E6CEC22F0016EF3CF02F0040E0D
:10308000E12601500001936F0050010A1FE193C037
:1030900001F0026AFF0E01260222000EE56E640EA8
:1030A000E56E0250E56E0150E56E6CEC22F0016EAB
:1030B000F3CF02F0040EE12601500001936F0001EE
:1030C0009351FF0A03E1630E0001936F0050030A5E
:1030D0000BE100019351E56ED9EC2AF0E652100E97
:1030E000E56E65EC2FF0E6520050020A0BE100019C
:1030F0009351E56ED9EC2AF0E652110EE56E65ECBF
:103100002FF0E6520050040A02E0D3EF1BF000015A
:103110009351E56ED9EC2AF0E6520F0EE56E65ECA0
:103120002FF0E652D3EF1BF0005003E00050010AED
:1031300005E10F0EE56E65EC2FF0E6520050030A34
:1031400003E00050020A05E10E0EE56E65EC2FF07B
:10315000E6520050040A02E0D3EF1BF0140EE56EB5
:1031600065EC2FF0E652D3EF1BF0005017E18FC053
:1031700001F0026A014A022A000EE56E180EE56EA1
:103180000250E56E0150E56E6CEC22F0016EF3CF5B
:1031900002F0040EE126015000018F6F016A005019
:1031A000010A01E1012A01501BE000018F5118E0E2
:1031B0008FC002F0036AFF0E02260322000EE56EA6
:1031C000180EE56E0350E56E0250E56E6CEC22F0D1
:1031D000026EF3CF03F0040EE126025000018F6F60
:1031E000015006E000018F5103E1170E00018F6FBF
:1031F0000050030A0BE100018F51E56E78EC2BF0D3
:10320000E652150EE56E65EC2FF0E6520050020A0C
:103210000BE100018F51E56E78EC2BF0E652160EB3
:10322000E56E65EC2FF0E6520050040A02E0D3EFA1
:103230001BF000018F51E56E78EC2BF0E652130E77
:10324000E56E65EC2FF0E652D3EF1BF0005019E16C
:1032500090C001F0026A0A0E0126D8B0022A000EC0
:10326000E56E3C0EE56E0250E56E0150E56E6CECCD
:1032700022F0016EF3CF02F0040EE12601500001AE
:10328000906F016A0050010A01E1012A01501DE01E
:103290000A0E0001905D19E390C002F0036AF60E79
:1032A0000226D8A00306000EE56E3C0EE56E035024
:1032B000E56E0250E56E6CEC22F0026EF3CF03F087
:1032C000040EE12602500001906F015006E000015B
:1032D000905103E1320E0001906F0050030A0BE1A0
:1032E00000019051E56EADEC2BF0E652160EE56E46
:1032F00065EC2FF0E6520050020A0BE100019051FC
:10330000E56EADEC2BF0E652140EE56E65EC2FF099
:10331000E6520050040A02E0D3EF1BF00001905186
:10332000E56EADEC2BF0E652130EE56E65EC2FF07A
:10333000E652D3EF1BF0005017E190C001F0026A93
:10334000014A022A000EE56E3C0EE56E0250E56E63
:103350000150E56E6CEC22F0016EF3CF02F0040E2A
:10336000E12601500001906F016A0050010A01E15D
:10337000012A01501CE0010E0001905D18E390C08D
:1033800002F0036AFF0E02260322000EE56E3C0ED9
:10339000E56E0350E56E0250E56E6CEC22F0026EB5
:1033A000F3CF03F0040EE12602500001906F0150AC
:1033B00006E00001905103E13B0E0001906F0050C8
:1033C000030A0BE100019051E56EADEC2BF0E652E3
:1033D000140EE56E65EC2FF0E6520050020A0BE188
:1033E00000019051E56EADEC2BF0E652150EE56E46
:1033F00065EC2FF0E6520050040A01E0D4D1000140
:103400009051E56EADEC2BF0E652130EE56E65ECD7
:103410002FF0E652C8D1005005E10E0EE56E65ECC6
:103420002FF0E6520050010A05E11F0EE56E65EC33
:103430002FF0E6520050040A05E1180EE56E65EC27
:103440002FF0E6520050020A04E00050030A01E0A7
:10345000AAD1000EE56E65EC2FF0E652A4D1005023
:1034600003E00050010A05E11B0EE56E65EC2FF04C
:10347000E6520050040A05E1190EE56E65EC2FF0E6
:10348000E6520050020A04E00050030A01E08BD12A
:10349000170EE56E65EC2FF0E65285D12EEC2FF07D
:1034A000016EF3CF02F00150030A02E1025001E085
:1034B00005D0180EE56E65EC2FF0E65200018E5136
:1034C000E56E02EC20F0016EF3CF02F0E6520150FF
:1034D000010A02E1025001E066D11A0EE56E65ECC8
:1034E0002FF0E652000EE56E000EE56ECAEC2EF0EF
:1034F000E652E65258D100500DE00050010A0AE0B1
:103500000050030A07E00050020A04E00050040AD9
:1035100001E049D123EC2FF0016EF3CF02F001500E
:103520000210D8A440D100018E51E56E04EC1FF0CA
:10353000016EF3CF02F0E652015002100BE139ECBC
:103540002FF0016EF3CF02F00150050A02E10250A4
:1035500001E029D139EC2FF0016EF3CF02F00150D8
:10356000050A02E1025001E006D0210EE56E65EC8D
:103570002FF0E65218D181EC2FF0016E026A78EC40
:103580002FF0036E046A0450E56E0350E56E02509E
:10359000E56E0150E56E02EC00F0040EE126180E17
:1035A000E56E65EC2FF0E652FED01A0EE56E65EC86
:1035B0002FF0E652F8D00050040A05E11C0EE56E2B
:1035C00065EC2FF0E652005003E00050010A05E1DF
:1035D000180EE56E65EC2FF0E6520050030A04E089
:1035E0000050020A01E0DFD0170EE56E65EC2FF007
:1035F000E652D9D02EEC2FF0016EF3CF02F001503D
:10360000030A02E1025001E005D01B0EE56E65ECF5
:103610002FF0E65200018E51E56E02EC20F0016EB3
:10362000F3CF02F0E6520150010A02E1025001E03C
:10363000BAD01D0EE56E65EC2FF0E652B4D0005006
:10364000040A0DE1000EE56E010EE56ED7EC2EF0DA
:10365000E652E6521B0EE56E65EC2FF0E652005086
:1036600003E00050010A05E11E0EE56E65EC2FF047
:10367000E6520050030A04E00050020A01E093D031
:103680001B0EE56E65EC2FF0E6528DD00050040A5B
:103690000DE1000EE56E000EE56ED7EC2EF0E65261
:1036A000E6521B0EE56E65EC2FF0E652005003E08B
:1036B0000050010A05E11D0EE56E65EC2FF0E652A3
:1036C0000050030A04E00050020A01E06CD01B0E17
:1036D000E56E65EC2FF0E65266D00050040A0DE16D
:1036E000000EE56E000EE56ECAEC2EF0E652E652D4
:1036F000200EE56E65EC2FF0E652005005E1170E46
:10370000E56E65EC2FF0E6520050010A05E1020E6D
:10371000E56E65EC2FF0E6520050030A04E000501D
:10372000020A01E040D0000EE56E65EC2FF0E65293
:103730003AD02EEC2FF0006EF3CF01F00050030AC8
:1037400002E1015001E005D01F0EE56E65EC2FF09F
:10375000E65200018E51E56E02EC20F0006EF3CFD0
:1037600001F0E6520050010A02E1015001E01BD0D5
:1037700081EC2FF0006E016A78EC2FF0026E036A84
:103780000350E56E0250E56E0150E56E0050E56EA7
:1037900002EC00F0040EE12642EC23F0000EE56E90
:1037A00065EC2FF0E65281EC2FF0006E016A78ECA8
:1037B0002FF0026E036A0350E56E0250E56E015071
:1037C000E56E0050E56E02EC00F0040EE126E4CF59
:1037D00004F0E4CF03F0E4CF02F0E4CF01F0E4CF53
:1037E00000F0E4CFD9FF1200D9CFE5FFE1CFD9FF38
:1037F00037EC26F0130E0201EE6F0201EF6BE4CFFF
:10380000D9FF1200200028756E6929002F002020A2
:1038100000003A00202020202020202020202020EE
:103820002020202000002A202020202020202020CE
:1038300020202020202000002A2A202020202020B4
:10384000202020202020202000002A2A2A2020209A
:10385000202020202020202020002A2A2A2A202060
:10386000202020202020202020002A2A2A2A2A2046
:103870002020202020202020200053656E68612019
:10388000696E636F727265746121000057726F6EAA
:10389000672070617373776F7264212000002020AD
:1038A000202800002C002920000020202000204398
:1038B0006F6E6669677572612074656D706F000068
:1038C000205365742074696D653A202020202020E3
:1038D000200020202020202000002A436F6E6669EF
:1038E000677572612074656D706F00002A5365748E
:1038F0002074696D653A20202020202000002020BF
:10390000202020202000506F727475677565732029
:103910002020202020200000456E676C69736820FD
:10392000202020202020202000002A506F72747553
:103930006775657320202020202000002A456E67CF
:103940006C6973682020202020202020000020485F
:103950006F726120202020202020202020200000C5
:1039600020486F7572202020202020202020202039
:103970000000202020202020202000002A486F72F4
:1039800061202020202020202020202000002A4804
:103990006F75722020202020202020202020000071
:1039A0002020202020202020200020486162696CF7
:1039B000697461722073656E6861000020456E61F4
:1039C000626C652070617373776F726400002A2ADD
:1039D0002A2020202020202020202020202000001D
:1039E0002A2A2A2A202020202020202020202020AF
:1039F00000002A2A2A2A2A202020202020202020D5
:103A00002020000053656E686120616C74657261EE
:103A100064612120000050617373776F72642063CA
:103A200068616E6765642100496E73697261206E1A
:103A30006F76616D656E74650000506C65617365CD
:103A40002072652D656E7465722000002A486162DF
:103A5000696C697461722073656E686100002A4543
:103A60006E61626C652070617373776F72640000C1
:103A7000204465736162696C697461722020202042
:103A800000002044697361626C65202020202020A2
:103A9000202000002A4465736162696C6974617258
:103AA0002020202000002A44697361626C65202078
:103AB00020202020202000005265696E6963696122
:103AC0006E646F546368617500005265737461724F
:103AD00074696E6742796562796500004C65697446
:103AE0007572613A000052656164696E673A000060
:103AF000496E73657269722073656E68613A202041
:103B00000000496E736572742070617373776F7211
:103B1000643A0000436F6E66696775726120616C7C
:103B200061726D65000053657420616C61726D2077
:103B300020202020202000002A416C61726D6573D6
:103B40002028422F4129202000002A416C61726DFB
:103B50007320284C2F4829202020000042616978DA
:103B60006F3A202020416C746F3A202000004C6F87
:103B7000773A20202020486967683A2020200000FA
:103B800020416C61726D65732028422F41292020ED
:103B9000000020416C61726D7320284C2F48292051
:103BA0002020000054656D706F2061717569736924
:103BB000E7E36F3A000054696D65206163717569D0
:103BC000736974696F6E0000436F6E666967757222
:103BD00061206964696F6D610000536574206C61D8
:103BE0006E677561676520202020000053656C6555
:103BF00063696F6E61206964696F6D610000536570
:103C00006C656374206C616E677561676520000088
:103C10004461746120202F2020486F72613A202077
:103C200000004461746520202F202054696D6520B8
:103C3000202000002A4461746120202020202020C0
:103C40002020202000002A446174652020202020AC
:103C5000202020202020000020446174613A202090
:103C60002020202020202020000020446174653A7C
:103C700020202020202020202020000020446174CB
:103C8000612020202020202020202020000020440F
:103C9000617465202020202020202020202000008A
:103CA00020486F7261733A2020202020202020209D
:103CB00000002054696D653A20202020202020201B
:103CC00020200000436F6E6669672E73656775720A
:103CD000616EE7610000436F6E6669672E20736551
:103CE00063757269747900002A416C74657261723F
:103CF0002073656E6861202000002A53657420706F
:103D0000617373776F7264202020000053656E68C2
:103D10006120617475616C202020202000004375B3
:103D20007272656E742070617373776F72640000D5
:103D300053656E6861206E6F766120202020202000
:103D400000004E65772070617373776F7264202076
:103D50002020000020416C74657261722073656ED2
:103D600068612020000020536574207061737377B0
:103D70006F72642020200000496E736572697220A2
:103D800073656E68612020200000496E736572744F
:103D90002070617373776F72202000002A4861627F
:103DA000696C6974617220202020202000002A455F
:103DB0006E61626C652020202020202020200000E1
:103DC00020486162696C6974617220202020202083
:103DD000000020456E61626C65202020202020209C
:103DE00020200000526573657420646F207369732E
:103DF00074656D61000053797374656D207265732D
:103E00006574202020200000D9CFE5FFE1CFD9FF45
:103E100000C0E5FF01C0E5FF02C0E5FF03C0E5FF0C
:103E200004C0E5FF05C0E5FF06C0E5FF020EDBCFDD
:103E300000F00201FE6B0201FF6B00502AE002015C
:103E4000FB51800F800F03E1050E0201FA5D21E3B3
:103E50000201FA51016EFB0E01260150020DF450D1
:103E600001BE0208026EF3CF01F0DA0E0126020E47
:103E7000022200C003F0046A01C0E9FF02C0EAFFA9
:103E800003C0EEFF04C0EFFF0201FA3F02D00201BF
:103E9000FB2B00502CE00201FB51800F800F03E14F
:103EA000050E0201FA5D23E20201FB51E56E0201FB
:103EB000FA51E56E000EE56E020EE56E2EEC27F06F
:103EC000016EF3CF02F0040EE126E40E0126020E8D
:103ED0000222036A01C0E9FF02C0EAFF00C0EEFF50
:103EE00003C0EFFF0201FA3F02D00201FB2B0201E7
:103EF000FC6B0201FD6B0201FA510A0A03E10201A7
:103F0000FB5101E06CD00201FA6B0201FB6B006A0D
:103F1000016A026AE40E0124036E020E0220046E9E
:103F200003C0E9FF04C0EAFFEECF03F0EFCF04F0D7
:103F3000DA0E0124056E020E0220066E05C0E9FFAE
:103F400006C0EAFFEECF05F0EFCF06F003500518EC
:103F500003E1045006180CE00201FC6B0201FD6B4A
:103F6000010E0201FE6F0201FF6BF36A010E39D0F0
:103F7000020E0126D8B0022A002A050E005CCAE310
:103F8000006A016A026AD00E0124036E020E02204A
:103F9000046EE40E0124056E020E0220066E05C0BA
:103FA000E9FF06C0EAFFEECF05F0EFCF06F003C051
:103FB000E9FF04C0EAFF05C0EEFF06C0EFFF020EF6
:103FC0000126D8B0022A002A050E005CDCE3010EAF
:103FD0000201FC6F0201FD6BF36A010E02D0F36A6D
:103FE000E86AE4CF06F0E4CF05F0E4CF04F0E4CFD4
:103FF00003F0E4CF02F0E4CF01F0E4CF00F0E4CF2F
:10400000D9FF1200D9CFE5FFE1CFD9FF00C0E5FF0E
:1040100001C0E5FF02C0E5FF03C0E5FF04C0E5FF06
:1040200005C0E5FF06C0E5FF020EDBCF00F0020190
:10403000FB51800F800F03E1050E0201FA5D30E2B3
:104040000201FC6B0201FD6B00501EE00201FA3F11
:1040500002D00201FB2B0201FA51016E0106015050
:10406000020DF45001BE0208026EF3CF01F0DA0E29
:104070000126020E0222036A01C0E9FF02C0EAFF24
:1040800000C0EEFF03C0EFFF0201FE51030A08E18A
:104090000201FF5101E004D00201FE6B0201FF6B3F
:1040A0000201FA51050A03E10201FB5101E049D086
:1040B000006A016A026ADA0E0124036E020E02200F
:1040C000046E03C0E9FF04C0EAFFEECF03F0EFCFB8
:1040D00004F0D00E0124056E020E0220066E05C00B
:1040E000E9FF06C0EAFFEECF05F0EFCF06F0035080
:1040F000051803E1045006180CE00201FE3F02D04F
:104100000201FF2B0201FA6B0201FB6BF36AE86A02
:104110001AD0020E0126D8B0022A002A050E005C31
:10412000CAE30201FE6B0201FF6B0201FA6B02019E
:10413000FB6B010E0201FC6F0201FD6BF36A010EC5
:1041400002D0F36AE86AE4CF06F0E4CF05F0E4CFEA
:1041500004F0E4CF03F0E4CF02F0E4CF01F0E4CFC9
:1041600000F0E4CFD9FF1200D9CFE5FFE1CFD9FFAE
:1041700000C0E5FF01C0E5FF02C0E5FF03C0E5FFA9
:1041800004C0E5FF05C0E5FF06C0E5FF07C0E5FF89
:1041900008C0E5FF09C0E5FF006A016A026A010E76
:1041A000036E005005E0E86CD8900336010FFDE384
:1041B000031E0FEE93F003C0EFFF0FEE81F003C07C
:1041C000EFFF036A0FEE81F0EFCF04F003C005F0BC
:1041D000066A040E0526D8B0062A010E076E000EE8
:1041E000086E05500FE007E6E86CD89007360836F1
:1041F000010FFCE307D0D89008BED8800832073200
:10420000010FFAE3096A045007160950081607500F
:10421000081010E103500224046E010E056E0450D4
:1042200005E0E86CD8900536010FFDE3055002016A
:10423000011311D003500124046E010E056E0450C9
:1042400005E0E86CD8900536010FFDE3051C046E0F
:10425000045002010117032A020E035CD8A0B2D752
:10426000012A012A022A022A002A040E005CD8A090
:1042700096D7020102510201011903E100018A07E8
:1042800005D00A0E00018A6F01C202F200018A51B4
:1042900002E102C200F2E4CF09F0E4CF08F0E4CF7B
:1042A00007F0E4CF06F0E4CF05F0E4CF04F0E4CF6C
:1042B00003F0E4CF02F0E4CF01F0E4CF00F0E4CF6C
:1042C000D9FF1200D9CFE5FFE1CFD9FF00C0E5FF4C
:1042D00001C0E5FF020EDBCF00F00FEE82F0EFCF62
:1042E00001F0019A0FEE82F001C0EFFF0FEE82F0B5
:1042F000EFCF01F001960FEE82F001C0EFFF0FEE5D
:1043000082F0EFCF01F001980FEE82F001C0EFFFD5
:104310000FEE82F0EFCF01F0018A0FEE82F001C0C4
:10432000EFFFD8900036810E00120050E56E31ECA0
:1043300025F0E6520FEE94F0EFCF00F000880FEE7C
:1043400094F000C0EFFF640E00018B6F00018B073B
:1043500000018B51FBE1640E00018B6F00018B07A4
:1043600000018B51FBE1640E00018B6F00018B0794
:1043700000018B51FBE1640E00018B6F00018B0784
:1043800000018B51FBE1640E00018B6F1BEC28F0E8
:10439000006E0FEE82F0EFCF01F0019A0FEE82F087
:1043A00001C0EFFF0FEE82F0EFCF01F001960FEEAC
:1043B00082F001C0EFFF0FEE82F0EFCF01F0019825
:1043C0000FEE82F001C0EFFF0FEE94F0EFCF01F09F
:1043D00001980FEE94F001C0EFFF0050E4CF01F020
:1043E000E4CF00F0E4CFD9FF1200D9CFE5FFE1CF51
:1043F000D9FF00C0E5FF01C0E5FF02C0E5FF03C033
:10440000E5FF04C0E5FF05C0E5FF06C0E5FF07C006
:10441000E5FF020EDBCF00F0030EDBCF01F0040E50
:10442000DBCF02F0050EDBCF03F0D88001AED890D1
:10443000046A0436045007E0011C066E001C056E79
:10444000054A062A04D000C005F001C006F0D88055
:1044500003AED890006A0036005007E0031C076ED8
:10446000021C016E014A072A04D002C001F003C0F9
:1044700007F00750E56E0150E56E0650E56E0550F9
:10448000E56E89EC25F0016EF3CF02F0040EE12613
:104490000050041A04500AE0021C036E011C006E56
:1044A000004A032A03C0F3FF005003D002C0F3FF09
:1044B0000150E4CF07F0E4CF06F0E4CF05F0E4CFFD
:1044C00004F0E4CF03F0E4CF02F0E4CF01F0E4CF56
:1044D00000F0E4CFD9FF1200D9CFE5FFE1CFD9FF3B
:1044E00000C0E5FF01C0E5FF02C0E5FF03C0E5FF36
:1044F00004C0E5FF05C0E5FF06C0E5FF020EDBCF07
:1045000000F0030EDBCF01F0040EDBCF02F0050E4E
:10451000DBCF03F0D88001AED890046A0436045093
:1045200007E0011C066E001C056E054A062A04D031
:1045300000C005F001C006F0D88003AED89007E3B4
:10454000031C016E021C006E004A012A04D002C046
:1045500000F003C001F00150E56E0050E56E06501A
:10456000E56E0550E56ED4EC24F0006EF3CF01F05B
:10457000040EE12604500AE0011C036E001C026ECA
:10458000024A032A03C0F3FF025003D001C0F3FF25
:104590000050E4CF06F0E4CF05F0E4CF04F0E4CF20
:1045A00003F0E4CF02F0E4CF01F0E4CF00F0E4CF79
:1045B000D9FF1200000000DC3A00E63A00F03A00B1
:1045C000023B00143B00263B00383B004A3B005CAA
:1045D0003B006E3B005C3B006E3B005C3B006E3B77
:1045E000005C3B006E3B00803B00923B00A43B0024
:1045F000B63B00A43B00B63B00A43B00B63B00C862
:104600003B00DA3B00EC3B00FE3B00103C00223C50
:1046100000343C00463C00583C006A3C00583C00DA
:104620006A3C00583C006A3C007C3C008E3C00A088
:104630003C00B23C00A03C00B23C00A03C00B23CBC
:1046400000C43C00D63C00E83C00FA3C000C3D00B5
:104650001E3D00303D00423D00543D00663D007867
:104660003D008A3D009C3D00AE3D00C03D00D23D76
:1046700000E43D00F63D00F03A00023B00F03A0055
:10468000023B0000D9CFE5FFE1CFD9FF00C0E5FF35
:1046900001C0E5FF00018C6BE80E0201F26F030E12
:1046A0000201F36F140E0201F66F0201F76B500E58
:1046B0000201F46F0201F56B00018D6B0A0E00011F
:1046C000806F0001816B0201FA6B0201FB6B02013A
:1046D000FB51E56E0201FA51E56E000EE56E020E29
:1046E000E56E2EEC27F0006EF3CF01F0040EE1260C
:1046F000D00E0026020E012200C0E9FF01C0EAFF31
:10470000050EEE6E000EEF6E0201FA3F02D00201BE
:10471000FB2B0201FB51800F800F03E1050E02010C
:10472000FA5DD5E3010E0201F86F0201F96B020197
:10473000FA6B0201FB6B0201FE6B0201FF6B0201CF
:10474000FC6B0201FD6BE4CF01F0E4CF00F0E4CF9D
:10475000D9FF1200D9CFE5FFE1CFD9FF00C0E5FFB7
:1047600001C0E5FF02C0E5FF03C0E5FF020EDBCF9D
:1047700000F0030EDBCF01F0D88001AED89009E342
:10478000011E006CD8B4012A2D0EE56EAEEC28F0A7
:10479000E652000EE56E0A0EE56E0150E56E005021
:1047A000E56EF5EC21F0026EF3CF03F0040EE12686
:1047B000000EE56E0A0EE56E0350E56E0250E56EE2
:1047C0006CEC22F0026EF3CF03F0040EE126300E03
:1047D00002260250E56EAEEC28F0E652000EE56EC1
:1047E0000A0EE56E0150E56E0050E56E6CEC22F0AD
:1047F000006EF3CF01F0040EE126300E00260050CB
:10480000E56EAEEC28F0E652E4CF03F0E4CF02F020
:10481000E4CF01F0E4CF00F0E4CFD9FF1200D9CF0C
:10482000E5FFE1CFD9FF00C0E5FF01C0E5FF02C011
:10483000E5FF020EDBCF00F0030EDBCF01F00FEE41
:1048400082F0EFCF02F0029A0FEE82F002C0EFFF8B
:104850000FEE82F0EFCF02F002960FEE82F002C070
:10486000EFFF0FEE82F0EFCF02F002980FEE82F032
:1048700002C0EFFF0FEE82F0EFCF02F0028A0FEEE0
:1048800082F002C0EFFFD8900036008E0050E56E37
:1048900031EC25F0E6520150E56E31EC25F0E652A0
:1048A0000FEE82F0EFCF00F0009A0FEE82F000C022
:1048B000EFFF0FEE82F0EFCF00F000960FEE82F0E8
:1048C00000C0EFFF0FEE82F0EFCF00F000980FEE88
:1048D00082F000C0EFFFE4CF02F0E4CF01F0E4CFBC
:1048E00000F0E4CFD9FF1200D9CFE5FFE1CFD9FF27
:1048F00000C0E5FF01C0E5FF02C0E5FF03C0E5FF22
:1049000004C0E5FF05C0E5FF020EDBCF00F0030E9B
:10491000DBCF01F00150E56E0050E56E000EE56E54
:10492000020EE56E2EEC27F0006EF3CF01F0040EC0
:10493000E12600C002F001C003F0046A056A0250DB
:10494000FF08026EFF0E0356000E0456000E0556B9
:104950000250006E0350016EF20E0026D8A0010630
:104960000150026E036A0FEED7F002C0EFFF016A3A
:104970000FEED6F000C0EFFF0FEEF2F0EFCF00F039
:1049800000940FEEF2F000C0EFFFE4CF05F0E4CFAB
:1049900004F0E4CF03F0E4CF02F0E4CF01F0E4CF81
:1049A00000F0E4CFD9FF1200D9CFE5FFE1CFD9FF66
:1049B00000C0E5FF01C0E5FF02C0E5FF03C0E5FF61
:1049C00004C0E5FF05C0E5FF06C0E5FF020EDBCF32
:1049D00000F0030EDBCF01F0040EDBCF02F0050E7A
:1049E000DBCF03F0046A056A0350800BE844066ECF
:1049F000065011E10250022603360350015C02E129
:104A00000250005C04E2D8900332023204D0052A3E
:104A100005C004F0E9D70350015C02E10250005CDC
:104A200004E30250005E0350015AD8900332023270
:104A300004C005F004060550EEE101C0F3FF00508C
:104A4000E4CF06F0E4CF05F0E4CF04F0E4CF03F0C8
:104A5000E4CF02F0E4CF01F0E4CF00F0E4CFD9FFDF
:104A60001200D9CFE5FFE1CFD9FF00C0E5FF01C0BB
:104A7000E5FF02C0E5FF020EDBCF00F0016A00A0F7
:104A80000AD00FEE82F0EFCF02F002880FEE82F034
:104A900002C0EFFF09D00FEE82F0EFCF02F00298D4
:104AA0000FEE82F002C0EFFFD89000320FEE82F0DE
:104AB000EFCF02F002860FEE82F002C0EFFF640E2D
:104AC00000018B6F00018B0700018B51FBE10FEEA2
:104AD00082F0EFCF02F002960FEE82F002C0EFFFFD
:104AE000640E00018B6F00018B0700018B51FBE10D
:104AF000640E00018B6F012A080E015CD8A0BFD79D
:104B0000E4CF02F0E4CF01F0E4CF00F0E4CFD9FF2E
:104B10001200D9CFE5FFE1CFD9FF00C0E5FF01C00A
:104B2000E5FF02C0E5FF03C0E5FF04C0E5FF05C0E7
:104B3000E5FF06C0E5FF07C0E5FF020EDBCF00F092
:104B4000030EDBCF01F0040EDBCF02F0050EDBCF4E
:104B500003F0046A056A100E066E0150800BE844EB
:104B6000076E005000260136045004260536075013
:104B7000D8A404800350055C02E10250045C05E304
:104B80000250045E0350055A00800604076E07C0F9
:104B900006F00750E2E101C0F3FF0050E4CF07F058
:104BA000E4CF06F0E4CF05F0E4CF04F0E4CF03F067
:104BB000E4CF02F0E4CF01F0E4CF00F0E4CFD9FF7E
:104BC000120011EEFFF021EEFFF0F86AA68EA69C0F
:104BD000E9680E0EEA6E0068ED6A0050FDE1140E01
:104BE000F66E5F0EF76E000EF86E0900F5CF05F059
:104BF0000900F5CF06F034D00900F5CF00F0090028
:104C0000F5CF01F00900F5CF02F009000900F5CF5A
:104C1000E9FF0900F5CFEAFF090009000900F5CF17
:104C200003F00900F5CF04F009000900F6CF07F002
:104C3000F7CF08F0F8CF09F000C0F6FF01C0F7FF8A
:104C400002C0F8FF03D00900F5CFEEFF0306FBE238
:104C50000406F9E207C0F6FF08C0F7FF09C0F8FF35
:104C60000506CAE20606C8E2CDEC27F0FFD7D9CF89
:104C7000E5FFE1CFD9FF00C0E5FFD3EC2DF0D3EC89
:104C80002DF0D3EC2DF0D3EC2DF0D3EC2DF0D3ECB4
:104C90002DF00FEE96F0EFCF00F000900FEE96F0B3
:104CA00000C0EFFF0FEE96F0EFCF00F000920FEE96
:104CB00096F000C0EFFF0FEE96F0EFCF00F00094FB
:104CC0000FEE96F000C0EFFF0FEE95F0000EEF6EC6
:104CD0000FEEC1F00E0EEF6E380EE56EF3EC28F01D
:104CE000E6520F0EE56EF3EC28F0E652060EE56E86
:104CF000F3EC28F0E652030EE56EF3EC28F0E652F2
:104D0000010EE56EF3EC28F0E652E4CF00F0E4CFBC
:104D1000D9FF1200D9CFE5FFE1CFD9FF00C0E5FFF1
:104D200001C0E5FF02C0E5FF03C0E5FF04C0E5FFE9
:104D300005C0E5FF06C0E5FF07C0E5FF020EDBCFBB
:104D400000F0030EDBCF01F0040EDBCF02F0036AAC
:104D5000046A03500024056E04500120066EE86AC0
:104D600004BEE8680220076E05C0E9FF06C0F3FF35
:104D70000750AAEC2EF0056E0550E56EAEEC28F05B
:104D8000E652034A042A0450800F800F02E1100EFD
:104D9000035CDFE3E4CF07F0E4CF06F0E4CF05F0F7
:104DA000E4CF04F0E4CF03F0E4CF02F0E4CF01F06D
:104DB000E4CF00F0E4CFD9FF1200D9CFE5FFE1CF77
:104DC000D9FF00C0E5FF01C0E5FF02C0E5FF03C059
:104DD000E5FF04C0E5FF05C0E5FF050E006E016AB2
:104DE0006FEC2FF0026E036A0250046E0350056EE2
:104DF00004500001821904E105500001831918E0F4
:104E000002A603D0030E006E016A02AE03D0020EAA
:104E1000006E016A02A203D0040E006E016A02AAAB
:104E200003D0010E006E016A02A802D0006A016A76
:104E300002C082F003C083F001C0F3FF0050E4CF52
:104E400005F0E4CF04F0E4CF03F0E4CF02F0E4CFC8
:104E500001F0E4CF00F0E4CFD9FF1200D9CFE5FF95
:104E6000E1CFD9FF00C0E5FF01C0E5FF02C0E5FFCB
:104E700003C0E5FF020EDBCF00F0030EDBCF01F035
:104E8000040EDBCF02F0050EDBCF03F00050000173
:104E9000846F0150856F02500001866F0350876F49
:104EA0000001845100018603F4CF01F0F3CF00F03C
:104EB00000500001886F0150896F0001845100018A
:104EC0008703F3CF00F00001855100018603F3CF83
:104ED00001F0015000260001895100260050896F21
:104EE00089C0F3FF8851E4CF03F0E4CF02F0E4CFB0
:104EF00001F0E4CF00F0E4CFD9FF1200D9CFE5FFF5
:104F0000E1CFD9FF00C0E5FF01C0E5FF02C0E5FF2A
:104F100003C0E5FF04C0E5FF05C0E5FF06C0E5FFEF
:104F200007C0E5FF020EDBCF00F0030EDBCF01F080
:104F3000040EDBCF02F0036A046A03500024056EFE
:104F400004500120066EE86A04BEE8680220076E7D
:104F500005C0E9FF06C0F3FF0750AAEC2EF0056E6E
:104F6000055008E00550E56EAEEC28F0E652034A25
:104F7000042AE3D7E4CF07F0E4CF06F0E4CF05F04E
:104F8000E4CF04F0E4CF03F0E4CF02F0E4CF01F08B
:104F9000E4CF00F0E4CFD9FF1200B7EC2DF037ECEE
:104FA00026F005EC2EF042EC23F0FEEC2EF0F4ECB3
:104FB0001BF0A0EC2CF0000EE56E070EE56E0FEC7A
:104FC00024F0E652E652000EE56EE2EC2BF0E652DB
:104FD000000EE56EADEC2BF0E652000EE56E78ECBF
:104FE0002BF0E652010EE56E43EC2BF0E652010E7B
:104FF000E56E0EEC2BF0E652110EE56ED9EC2AF0C0
:10500000E652040EE56E4BEC2EF0E6525AEC2FF011
:10501000006EF3CF01F00150E56E0050E56E74ECC8
:1050200024F0E652E652B4EC20F022EC12F099ECB7
:105030002EF0ECD71200D9CFE5FFE1CFD9FF00C0A9
:10504000E5FF01C0E5FF02C0E5FF006A016A0FEE5F
:1050500082F0EFCF02F002860FEE82F002C0EFFF87
:10506000640E00018B6F00018B0700018B51FBE187
:10507000640E00018B6FD89000320FEE82F0EFCFFC
:1050800002F002A801D0008E0FEE82F0EFCF02F006
:1050900002960FEE82F002C0EFFF640E00018B6FEC
:1050A00000018B0700018B51FBE1640E00018B6F47
:1050B000012A080E015CD8A0CAD70050E4CF02F044
:1050C000E4CF01F0E4CF00F0E4CFD9FF1200D9CF54
:1050D000E5FFE1CFD9FF000EE56E070EE56E0FECA0
:1050E00024F0E652E652000EE56E000EE56E0FEC7F
:1050F00024F0E652E652210EE56E010EE56E0FEC4D
:1051000024F0E652E652230EE56E020EE56E0FEC39
:1051100024F0E652E652280EE56E030EE56E0FEC23
:1051200024F0E652E652100EE56E040EE56E0FEC2A
:1051300024F0E652E652060EE56E050EE56E0FEC23
:1051400024F0E652E652120EE56E060EE56E0FEC06
:1051500024F0E652E652E4CFD9FF1200D9CFE5FFA2
:10516000E1CFD9FF00C0E5FF01C0E5FF020EDBCFB4
:1051700000F00FEE84F0EFCF01F001800FEE84F02D
:1051800001C0EFFF0FEE84F0EFCF01F001940FEEBE
:1051900084F001C0EFFF0FEE83F000C0EFFF0FEED1
:1051A00084F0EFCF00F000820FEE84F000C0EFFF3C
:1051B0000FEE84F0EFCF00F000920FEE84F000C00D
:1051C000EFFF0FEE84F0EFCF00F000900FEE84F0D1
:1051D00000C0EFFF1DEC2EF0E4CF01F0E4CF00F0B3
:1051E000E4CFD9FF1200D9CFE5FFE1CFD9FF00C04E
:1051F000E5FF01C0E5FF020EDBCF00F00FEE84F00B
:10520000EFCF01F001900FEE84F001C0EFFF0FEE41
:1052100084F0EFCF01F001940FEE84F001C0EFFFB6
:105220000FEE83F000C0EFFF0FEE84F0EFCF01F040
:1052300001820FEE84F001C0EFFF0FEE84F0EFCF9C
:1052400001F001920FEE84F001C0EFFF00A203D045
:10525000D3EC2DF002D01DEC2EF0E4CF01F0E4CF22
:1052600000F0E4CFD9FF1200D9CFE5FFE1CFD9FF9D
:1052700000C0E5FF01C0E5FF020EDBCF00F0030E2A
:10528000DBCF01F00050010A02E1015001E003D040
:1052900000018F5123D00050020A02E1015001E0C9
:1052A00003D0000190511AD00050030A02E10150CE
:1052B00001E003D00001915111D00050040A02E135
:1052C000015001E003D00001925108D00050050ABE
:1052D00002E1015001E002D000019351E4CF01F05E
:1052E000E4CF00F0E4CFD9FF1200D9CFE5FFE1CF42
:1052F000D9FF00C0E5FF01C0E5FF02C0E5FF03C024
:10530000E5FF04C0E5FF020EDBCF00F0030EDBCFAC
:1053100001F00FEE83F0EFCF02F0010E036E046A8E
:1053200000500DE007E6E86CD89003360436010F14
:10533000FCE305D0D89004320332010FFCE3031CD8
:10534000006E005002160FEE83F002C0EFFFE4CFB4
:1053500004F0E4CF03F0E4CF02F0E4CF01F0E4CFB7
:1053600000F0E4CFD9FF1200D9CFE5FFE1CFD9FF9C
:1053700000C0E5FF01C0E5FF02C0E5FF03C0E5FF97
:1053800004C0E5FF020EDBCF00F0030EDBCF01F01F
:105390000FEE83F0EFCF02F0010E036E046A0050AF
:1053A0000DE007E6E86CD89003360436010FFCE305
:1053B00005D0D89004320332010FFCE30350006E95
:1053C000005002120FEE83F002C0EFFFE4CF04F0B2
:1053D000E4CF03F0E4CF02F0E4CF01F0E4CF00F03B
:1053E000E4CFD9FF1200D9CFE5FFE1CFD9FF00C04C
:1053F000E5FF01C0E5FF02C0E5FF03C0E5FF04C013
:10540000E5FF020EDBCF00F0030EDBCF01F0026AF6
:10541000080E036E800E0014046ED8900036D890EB
:1054200002360450D8A402800150025C03E301500C
:10543000025E00800304046E04C003F00450EAE13D
:105440000050E4CF04F0E4CF03F0E4CF02F0E4CF67
:1054500001F0E4CF00F0E4CFD9FF1200D9CFE5FF8F
:10546000E1CFD9FF00C0E5FF01C0E5FF02C0E5FFC5
:1054700003C0E5FF0FEEC2F0EFCF00F000820FEEA9
:10548000C2F000C0EFFF0FEEC2F0EFCF00F000B2AD
:10549000FAD70FEEC4F0EFCF00F0016A0050016EB2
:1054A000006A0FEEC3F0EFCF02F0036A025000264D
:1054B0000350012201C0F3FF0050E4CF03F0E4CF1A
:1054C00002F0E4CF01F0E4CF00F0E4CFD9FF120006
:1054D000D9CFE5FFE1CFD9FF00C0E5FF01C0E5FF6F
:1054E00002C0E5FF03C0E5FF020EDBCF00F0030EB4
:1054F000DBCF01F0026A036A01BE0CD0D8900136FE
:105500000150005C03E2D890013204D0032A03C0AA
:1055100002F0F2D70150005C02E30150005ED89027
:10552000013202C003F002060350F4E10050E4CF60
:1055300003F0E4CF02F0E4CF01F0E4CF00F0E4CFD9
:10554000D9FF1200D9CFE5FFE1CFD9FF00C0E5FFB9
:1055500001C0E5FF02C0E5FF03C0E5FF020EDBCF9F
:1055600000F0030EDBCF01F0040EDBCF02F0050EDE
:10557000DBCF03F00250020A02E1035001E004D045
:1055800000C0F4F201C0F5F20250010A02E103503A
:1055900001E004D000C0F6F201C0F7F2E4CF03F05E
:1055A000E4CF02F0E4CF01F0E4CF00F0E4CFD9FF84
:1055B0001200D9CFE5FFE1CFD9FF00C0E5FF01C060
:1055C000E5FF02C0E5FF020EDBCF00F00A0EE56E3C
:1055D00000C0E5FF68EC2AF0016EE450E4500A0ECA
:1055E000E56E00C0E5FFF3EC29F0006EE450E450F6
:1055F0000038F00B026E025001120150E56E060EEB
:10560000E56E0FEC24F0E652E652E4CF02F0E4CF70
:1056100001F0E4CF00F0E4CFD9FF1200D9CFE5FFCD
:10562000E1CFD9FF00C0E5FF01C0E5FF02C0E5FF03
:10563000020EDBCF00F00A0EE56E00C0E5FF68EC5D
:105640002AF0016EE450E4500A0EE56E00C0E5FF5A
:10565000F3EC29F0006EE450E4500038F00B026ED9
:10566000025001120150E56E040EE56E0FEC24F0BD
:10567000E652E652E4CF02F0E4CF01F0E4CF00F0CE
:10568000E4CFD9FF1200D9CFE5FFE1CFD9FF00C0A9
:10569000E5FF01C0E5FF02C0E5FF020EDBCF00F031
:1056A0000A0EE56E00C0E5FF68EC2AF0016EE450DA
:1056B000E4500A0EE56E00C0E5FFF3EC29F0006E41
:1056C000E450E4500038F00B026E02500112015019
:1056D000E56E030EE56E0FEC24F0E652E652E4CFE1
:1056E00002F0E4CF01F0E4CF00F0E4CFD9FF1200E4
:1056F000D9CFE5FFE1CFD9FF00C0E5FF01C0E5FF4D
:1057000002C0E5FF020EDBCF00F00A0EE56E00C01E
:10571000E5FF68EC2AF0016EE450E4500A0EE56EF5
:1057200000C0E5FFF3EC29F0006EE450E4500038CF
:10573000F00B026E025001120150E56E020EE56E92
:105740000FEC24F0E652E652E4CF02F0E4CF01F091
:10575000E4CF00F0E4CFD9FF1200D9CFE5FFE1CFCD
:10576000D9FF00C0E5FF01C0E5FF02C0E5FF020E62
:10577000DBCF00F00A0EE56E00C0E5FF68EC2AF012
:10578000016EE450E4500A0EE56E00C0E5FFF3EC54
:1057900029F0006EE450E4500038F00B026E025025
:1057A00001120150E56E010EE56E0FEC24F0E65299
:1057B000E652E4CF02F0E4CF01F0E4CF00F0E4CF12
:1057C000D9FF1200D9CFE5FFE1CFD9FF00C0E5FF37
:1057D00001C0E5FF02C0E5FF020EDBCF00F00A0EBC
:1057E000E56E00C0E5FF68EC2AF0016EE450E4507D
:1057F0000A0EE56E00C0E5FFF3EC29F0006EE45000
:10580000E4500038F00B026E025001120150E56EB8
:10581000000EE56E0FEC24F0E652E652E4CF02F003
:10582000E4CF01F0E4CF00F0E4CFD9FF1200D9CFEC
:10583000E5FFE1CFD9FF00C0E5FF0FEE94F0EFCF19
:1058400000F0009A0FEE94F000C0EFFF0FEE94F01E
:10585000EFCF00F000980FEE94F000C0EFFF0FEED6
:1058600094F0EFCF00F000960FEE94F000C0EFFF41
:105870000FEEF1F0EFCF00F0009E0FEEF1F000C060
:10588000EFFFE4CF00F0E4CFD9FF1200D9CFE5FF5E
:10589000E1CFD9FF00C0E5FF01C0E5FF020EDBCF7D
:1058A00000F0030EDBCF01F00050020A02E10150CC
:1058B00001E005D0F5C2F3FF0201F4510DD0005014
:1058C000010A02E1015001E005D0F7C2F3FF020135
:1058D000F65102D0F36AE86AE4CF01F0E4CF00F0B9
:1058E000E4CFD9FF1200D9CFE5FFE1CFD9FF00C047
:1058F000E5FF020EDBCF00F000018E6B0050020AC4
:1059000003E1010E00018E6F0050010A03E1020E57
:1059100000018E6F0050030A03E1030E00018E6F39
:10592000005003E1040E00018E6F0050040A03E1F1
:10593000050E00018E6FE4CF00F0E4CFD9FF120016
:10594000D9CFE5FFE1CFD9FF00C0E5FF0FEE94F01E
:10595000EFCF00F0009A0FEE94F000C0EFFF0FEED3
:1059600094F0EFCF00F000980FEE94F000C0EFFF3E
:105970000FEE94F0EFCF00F000960FEE94F000C021
:10598000EFFFE4CF00F0E4CFD9FF1200D9CFE5FF5D
:10599000E1CFD9FF00C0E5FF01C0E5FF060EE56ECF
:1059A00062EC21F0006EE65200380F0B016E0F0E14
:1059B000011601500A0DF3CF01F00F0E0016005032
:1059C00001260150E4CF01F0E4CF00F0E4CFD9FF8D
:1059D0001200D9CFE5FFE1CFD9FF00C0E5FF01C03C
:1059E000E5FF030EE56E62EC21F0006EE652003832
:1059F0000F0B016E030E011601500A0DF3CF01F0DB
:105A00000F0E0016005001260150E4CF01F0E4CF44
:105A100000F0E4CFD9FF1200D9CFE5FFE1CFD9FFE5
:105A200000C0E5FF01C0E5FF020EE56E62EC21F06B
:105A3000006EE65200380F0B016E030E0116015086
:105A40000A0DF3CF01F00F0E001600500126015091
:105A5000E4CF01F0E4CF00F0E4CFD9FF1200D9CFBA
:105A6000E5FFE1CFD9FF00C0E5FF01C0E5FF010E72
:105A7000E56E62EC21F0006EE65200380F0B016E0D
:105A8000070E011601500A0DF3CF01F00F0E00169C
:105A9000005001260150E4CF01F0E4CF00F0E4CF44
:105AA000D9FF1200D9CFE5FFE1CFD9FF00C0E5FF54
:105AB00001C0E5FF000EE56E62EC21F0006EE652DB
:105AC00000380F0B016E070E011601500A0DF3CFBF
:105AD00001F00F0E0016005001260150E4CF01F036
